S00E00004475706C6F6D2E73726563A5
S1130000ABC1C5C1C4C1C3C1C2C1C1C1C0C1BFC1EB
S1130010BEC1B3C2BCC1BBC1BAC1B9C1B8C1B7C109
S1130020B6C1B5C1B4C1464D0020202020202020F7
S11300302020202020202000000000000000005F7D
S113004000000007000700147F147F14242A7F2A6D
S1130050124C2C10686436495522500005030000E8
S1130060001C2241000041221C0014083E08140810
S1130070083E0808000050300010101010100060F6
S113008060000020100804023E5149453E00427FB2
S1130090400042615149462141454B311814127FB9
S11300A01027454545393C4A494930017109050342
S11300B03649494936064949291E003636000000AA
S11300C0563600000814224100141414141400417C
S11300D02214080201510906324979413E7E111168
S11300E0117E7F494949363E414141227F414122A7
S11300F01C7F494949417F090909013E4149497A1F
S11301007F0808087F00417F41002040413F017F74
S1130110081422417F404040407F020C027F7F044C
S113012008107F3E4141413E7F090909063E415185
S1130130215E7F09192946464949493101017F0158
S1130140013F4040403F1F2040201F3F4038403F78
S11301506314081463070870080761514945430094
S11301607F41410002040810200041417F00040245
S11301700102044040404040000102040020545465
S113018054787F48444438384444442038444448EC
S11301907F3854545418087E0901020C5252523EBE
S11301A07F0804047800447D40002040443D007FE3
S11301B01028440000417F40007C041804787C0827
S11301C004047838444444387C141414080814147F
S11301D0187C7C080404084854545420043F4440C8
S11301E0203C4040207C1C2040201C3C4030403CB3
S11301F044281028440C5050503C4464544C44004F
S11302000836410000007F00000041360800080461
S1130210081008FFFFFFFFFF7C1211127C7F494981
S113022049317F494949367F01010101603F213F3E
S1130230607F4949494177087F0877224149493617
S11302407F1008047F7E1009047E7F081422414039
S11302503E01017F7F020C027F7F0808087F3E4138
S113026041413E7F0101017F7F090909063E414169
S1130270412201017F0101074848483F0E117F11C7
S11302800E63140814633F20203F60070808087FAA
S11302907F407E407F3F203F207F017F4848307F62
S11302A04830007F007F484830224149493E7F085A
S11302B03E413E462919097F20545454783C4A4A09
S11302C04A317C545428007C04040C00603C243CD7
S11302D06038545454186C107C106C0044545428E6
S11302E07C2010087C7C2112097C7C10284400406E
S11302F03804047C7C0810087C7C1010107C384482
S11303004444387C0404047C7C14141408384444A5
S1130310440004047C04040C5050503C08147C1425
S11303200844281028443C20203C600C1010107C09
S11303307C407C407C3C203C207C047C5050207CD5
S11303405020007C007C50502028445454387C10A9
S1130350384438485434147C11241FBECFE5D4E00B
S1130360DEBFCDBF10E0A0E6B0E0E2ECFDE002C0ED
S113037005900D92A436B107D9F722E0A4E6B0E0C7
S113038001C01D92A437B207E1F71BD118C538CEBE
S113039084B3807F84BB85B38F6085BB0895989BAD
S11303A015C09A9B15C0999B15C09B9B15C01AC07C
S11303B084E0809364009093650008958F5F809338
S11303C06400833089F490936500089591E005C03A
S11303D093E003C092E001C094E0809164008D300A
S11303E068F3E6CF1092640008958091650010923E
S11303F065000895A59A8AE08A95F1F700C0A49A49
S11304008AE08A95F1F700C0A5988AE08A95F1F709
S113041000C0A4988AE08A95F1F700C01092700099
S11304209C9905C0809170008F5F809370009D99A6
S113043005C0809170008F5F809370008AE08A9578
S1130440F1F700C08AE08A95F1F700C08AE08A9546
S1130450F1F700C08AE08A95F1F700C00895A498E6
S1130460A598AC98AD98C6DFC5DF0895A49A8AE034
S11304708A95F1F700C0A59A8AE08A95F1F700C041
S1130480089598E0882314F0A49A01C0A4982AE05F
S11304902A95F1F700C0A5982AE02A95F1F700C043
S11304A0A59A880F915071F7A4988AE08A95F1F77C
S11304B000C0A5982AE02A95F1F700C083B3A59A55
S11304C0829581700895D2DF80E2DBDF809166003F
S11304D0D8DF80916700D5DF80916800D2DF8091FA
S11304E06900CFDF80916A00CCDF80916B00C9DFA7
S11304F080916C00C6DF80916D00C3DF80916E0037
S1130500C0DF78DF089582ED809366008DE88093E4
S11305106700109268001092690082E080936A007C
S113052010926B0088E080936C008FE880936D00DC
S1130530CADF0895865693409C01369527953695D3
S1130540279520936800E9E6F0E090819061829518
S1130550880F880F807C892B8083B5DF29E230E007
S113056041E065E080E053D30895EDE6F0E090814A
S1130570907F892B8083A7DF08951F920F920FB677
S11305800F9211242F933F934F935F936F937F9315
S11305908F939F93AF93BF93EF93FF9300DF7BD130
S11305A0FF91EF91BF91AF919F918F917F916F9147
S11305B05F914F913F912F910F900FBE0F901F901D
S11305C01895CF93DF93CDB7DEB764970FB6F89441
S11305D0DEBF0FBECDBFDFD142DFDADE94DF83B7EB
S11305E0856083BF89B7816089BF12BE8091600036
S11305F0BCDF39D178940F2EF6E6CF2EF3E0DF2E50
S1130600F02D0F2EF8E3EF2EF4E0FF2EF02D0F2E39
S1130610FFE08F2EF02DBB24B3940F2EFCE9AF2EF8
S1130620F02D0F2EF8E19F2EF02DDFDE80936F006A
S11306308130B9F480916100909162000196893310
S113064024E0920728F4909362008093610004C030
S1130650D0926200C092610080916100909162002A
S113066069DF80916F008230B9F4809161009091CC
S113067062000197863623E0920728F09093620087
S11306808093610004C0F0926200E0926100809166
S11306906100909162004EDF80916F00833069F4B5
S11306A0809160008F5F803118F48093600002C0F5
S11306B0809260008091600058DF80916F008430E8
S11306C061F480916000815019F08093600002C051
S11306D0B09260008091600048DF00916100109149
S11306E06200980136952795369527953695279576
S11306F0A5ECB0E21BD3FC01F295E295EF70EF2775
S1130700FF70EF27E09373028E2F880F482F440F5A
S1130710440F480F98013695279536952795ABE7F2
S1130720B4E104D396958795282F241B422F209358
S113073071029801ADECBCECF9D29695879596952B
S1130740879596958795282FAE9E200D1124842F8A
S1130750880F982F990F990F890F281B20937002E7
S11307609E9E000D11244A9D000D1124220F822FFC
S1130770880F880F280F021B009372024AE0BE0103
S11307806F5F7F4FCF01F2D29E012F5F3F4F42E058
S113079063E08B2D1BD2809171024AE0BE016F5F32
S11307A07F4F90E0E3D29E012F5F3F4F42E063E032
S11307B083E00CD2809170024AE0BE016F5F7F4FEC
S11307C090E0D4D29E012F5F3F4F42E063E085E08A
S11307D0FDD14B2D60E28BE237D24B2D6FE18BE2E2
S11307E033D24B2D6EE18BE22FD24B2D6FE18AE297
S11307F02BD24B2D6EE18CE227D24B2D6FE18CE294
S113080023D24B2D60E28CE21FD24B2D6FE18DE29F
S11308101BD2809172024AE0BE016F5F7F4F90E06D
S1130820A5D29E012F5F3F4F42E063E088E0CED126
S113083026E230E04B2D63E08BE0E9D18FEF99EFB6
S113084020E0815090402040E1F700C00000EDCE50
S1130850C298613011F4C19A01C0C1988FB9779BD5
S1130860FECFC29A089588EF91E0E8E7F0E0DF0157
S11308709C011D9221503040E1F7109277001092B4
S1130880760087EF91E0909375008093740081E087
S1130890809371000895EF92FF920F931F93CF936B
S11308A0DF93809176009091770099232CF4109235
S11308B077001092760009C0883F914034F087EFAA
S11308C091E09093770080937600809174009091EA
S11308D0750099232CF4109275001092740009C0CD
S11308E0883F914034F087EF91E0909375008093B6
S11308F07400C0917600D0917700CE0164E570E079
S113090002D2E62EF82E60E08068A2DFE39460E075
S11309108E2D80649DDF80917400909175008C17FA
S11309209D07ECF08E0108581F4F61E0F80181919A
S11309308F018EDFF394F3E5FF1548F460E080E85F
S113094087DFE39460E08E2D806482DFF12C2196B2
S113095080917400909175008C179D0734F760E0C6
S113096081E276DF60E085E473DF60E080E270DFDF
S113097087EF91E090937700809376001092750052
S11309801092740010927100DF91CF911F910F911A
S1130990FF90EF900895C09A87B38F6287BBC09889
S11309A0C09A80E58DB9C29A60E081E251DF60E0CF
S11309B088EC4EDF60E086E04BDF60E083E148DFF7
S11309C060E080E245DF60E08CE042DF4CDF63DF23
S11309D008958E30A8F46630A8F490E09C01220FAC
S11309E0331F820F931F880F991F24E5629F800D88
S11309F0911D1124909373008093720080E00895F8
S1130A0081E0089581E008951F93CF93DF932091AF
S1130A107200309173004091760050917700241752
S1130A20350724F43093770020937600E0EEE60F48
S1130A30E03630F0603C18F0E0EAE60F01C0EFE584
S1130A40813049F56091720070917300CB01AB0164
S1130A504B5F5F4F2E2F30E0F901EE0FFF1FEE0FBB
S1130A60FF1F2E0F3F1F261B370B285C3F4FF9013A
S1130A70E80FF91FE491DC01A858BF4FEE0FEC9387
S1130A8001968417950799F76B5F7F4F70937300F6
S1130A906093720072C0823009F06FC0C90184553E
S1130AA0910940917600509177008417950724F4BA
S1130AB0909377008093760099230CF482C08E2F54
S1130AC090E0FC01EE0FFF1FEE0FFF1FE80FF91F70
S1130AD0E85CFF4FD901AB5DBF4FC901815D9F4FFA
S1130AE018E14491440F542F5470652F660F560F2C
S1130AF0550F550F642F6270762F770F670F660FAF
S1130B00562B742F7870719F702D1124572B42959A
S1130B104F70642F6170762F770F670F742F727088
S1130B20C72FCC0F7C0F770F762B642F6470C62FE2
S1130B30CC0F6C0FC62FCC0FCC0F672F6C2B4870CB
S1130B40419FC02D1124462F4C2BED012197588332
S1130B505C93CC5ADF4F4883219648833196129692
S1130B60A817B90709F0BDCFC9010B9668EF71E06A
S1130B70CAD0909373008093720080917200909118
S1130B80730020917400309175002817390724F4FC
S1130B909093750080937400FC01E858FF4F108215
S1130BA0873F21E0920731F4109273001092720093
S1130BB082E008C00196909373008093720080E0F5
S1130BC001C081E0DF91CF911F9108950F931F938E
S1130BD0CF93DF93042FE901FCDE6881662369F07B
S1130BE010E0802F11DF813051F01F5FFE01E10F13
S1130BF0F11D60816111F5CF04C080E003C081E084
S1130C0001C080E0DF91CF911F910F9108951F9350
S1130C10CF93DF93142FE901DCDEFE016491662398
S1130C2051F0812FF1DE813041F02196FE01649173
S1130C306111F7CF04C080E003C081E001C080E00F
S1130C40DF91CF911F910895843508F056C0603329
S1130C5008F055C0262F26952695269590E034E574
S1130C60239F800D911D1124220F220F220F621B3E
S1130C70FC01E858FF4F508141110CC021E030E0E5
S1130C80F90102C0EE0FFF1F6A95E2F7BF016095FC
S1130C90562317C0413051F421E030E0F90102C07D
S1130CA0EE0FFF1F6A95E2F75E2B0BC0423049F44A
S1130CB021E030E0F90102C0EE0FFF1F6A95E2F770
S1130CC05E27FC01E858FF4F508320917600309155
S1130CD077008217930724F490937700809376002B
S1130CE020917400309175002817390754F49093BB
S1130CF075008093740080E0089581E0089581E098
S1130D00089580E0089597FB072E16F4009406D00A
S1130D1077FD08D017D007FC05D03EF49095819557
S1130D209F4F0895709561957F4F0895A29FB001DC
S1130D30B39FC001A39F01D0B29F700D811D1124E8
S1130D40911D0895AA1BBB1B51E107C0AA1FBB1F1D
S1130D50A617B70710F0A61BB70B881F991F5A9543
S1130D60A9F780959095BC01CD010895BB27FB019F
S1130D705527AA27880F991FAA1FA41710F0A41B90
S1130D8083955051B9F7A05DAA3308F0A95DA193EA
S1130D90009779F7B111B1931192CB0100C0DC0136
S1130DA0FC01672F71917723E1F7329704C07C919E
S1130DB06D9370836291AE17BF07C8F30895F894DA
S1050DC0FFCF5F
S1070DC208370400E6
S9030000FC
